:100000000C940F010C9437010C9437010C943701B8
:100010000C9437010C9437010C9437010C94370180
:100020000C9437010C9437010C9437010C94370170
:100030000C9437010C9437010C9437010C94370160
:100040000C9481040C9437010C94F1040C94CB04AF
:100050000C9437010C9437010C9437010C94370140
:100060000C9423050C9437013078005B4932435DD2
:100070002041726475696E6F204272696467652001
:10008000493243205363616E6E6572005B493243AF
:100090005D2052657363616E6E696E6720696E20C4
:1000A0003130207365636F6E64732E2E2E00202016
:1000B000005B4932435D20002064657669636528F2
:1000C000732920666F756E64203D3D3D005B4932AB
:1000D000435D203D3D3D2053756D6D6172793A2041
:1000E000005B4932435D20436865636B3A205643A9
:1000F000432F474E4420776972696E672C20534422
:10010000412F53434C206E6F74207377617070657C
:10011000642C2070756C6C2D75702072657369731A
:10012000746F72732028342E376B292070726573B8
:10013000656E742E005B4932435D204E6F2064650E
:10014000766963657320666F756E642E00202D20BE
:10015000005B4932435D20464F554E4420005B49C9
:1001600032435D20546F6F206D616E79206164644D
:100170007265737365732041434B6564202D20665F
:100180006C6F6174696E672062757320286D697386
:1001900073696E672070756C6C2D7570733F292CB8
:1001A000207363616E2061626F727465642E005B00
:1001B0004932435D205363616E6E696E67206164EE
:1001C0006472657373657320307830382D307837FA
:1001D000372E2E2E0000000000250028002B0004E2
:1001E00004040404040404020202020202030303DE
:1001F00003030301020408102040800102040810D8
:100200002001020408102000000008000201000084
:100210000304070000000000000000004206112453
:100220001FBECFEFD8E0DEBFCDBF14E0A0E0B1E04D
:10023000E6EDF1E102C005900D92AE34B107D9F7B9
:1002400025E0AEE4B4E001C01D92AA3BB207E1F79D
:1002500011E0CFE0D1E004C02197FE010E94E30845
:10026000CE30D107C9F70E947B060C94E9080C94A4
:10027000000090E0FC01E95FFD4F2491FC01ED508E
:10028000FE4F3491FC01E152FE4FE491EE23C9F0A0
:10029000222339F0233001F1A8F4213019F1223062
:1002A00029F1F0E0EE0FFF1FEB52FE4FA591B49144
:1002B0008FB7F894EC91611126C030953E233C93A2
:1002C0008FBF08952730A9F02830C9F0243049F7AE
:1002D000809180008F7D03C0809180008F77809314
:1002E0008000DFCF84B58F7784BDDBCF84B58F7D71
:1002F000FBCF8091B0008F778093B000D2CF8091F8
:10030000B0008F7DF9CF3E2BDACF3FB7F8948091C4
:100310000D0590910E05A0910F05B091100526B521
:10032000A89B05C02F3F19F00196A11DB11D3FBF2D
:10033000BA2FA92F982F8827BC01CD01620F711DFC
:10034000811D911D42E0660F771F881F991F4A95F6
:10035000D1F7089508950895AF92BF92CF92DF929A
:10036000EF92FF920F931F93CF93DF936C017B016A
:100370008B01040F151FEB015E01AE18BF08C017FB
:10038000D10759F06991D601ED91FC910190F0816E
:10039000E02DC6010995892B79F7C501DF91CF9131
:1003A0001F910F91FF90EF90DF90CF90BF90AF9093
:1003B0000895FC01538D448D252F30E0842F90E06B
:1003C000821B930B541710F0CF9608950197089550
:1003D000FC01918D828D981761F0A28DAE0FBF2F19
:1003E000B11D5D968C91928D9F5F9F73928F90E06F
:1003F00008958FEF9FEF0895FC01918D828D9817DE
:1004000031F0828DE80FF11D858D90E008958FEF1A
:100410009FEF0895FC01918D228D892F90E0805CE3
:100420009F4F821B91098F739927089581E195E071
:100430000E940A0221E0892B09F420E0822F08950E
:1004400080E090E0892B29F00E94160281110C9423
:1004500000000895FC01A48DA80FB92FB11DA35A67
:10046000BF4F2C91848D90E001968F739927848FD4
:10047000A689B7892C93A089B1898C9183708064F7
:100480008C93938D848D981306C00288F389E02D98
:1004900080818F7D80830895EF92FF920F931F9349
:1004A000CF93DF93EC0181E0888F9B8D8C8D981327
:1004B0001AC0E889F989808185FF15C09FB7F89433
:1004C000EE89FF896083E889F9898081837080647F
:1004D00080839FBF81E090E0DF91CF911F910F91CA
:1004E000FF90EF900895F62E0B8D10E00F5F1F4FD9
:1004F0000F731127E02E8C8D8E110CC00FB607FCE8
:10050000FACFE889F989808185FFF5CFCE010E9475
:100510002A02F1CFEB8DEC0FFD2FF11DE35AFF4FB7
:10052000F0829FB7F8940B8FEA89FB898081806203
:10053000CFCF0F931F93CF93DF938C01D0E0C0E018
:10054000F801EC0FFD1F6491662341F081E195E015
:100550000E944C02892B11F02196F2CFCE01DF913F
:10056000CF911F910F910895CF93DF93EC01888D68
:100570008823B9F0AA89BB89E889F9898C9185FD1E
:1005800003C0808186FD0DC00FB607FCF7CF8C91AC
:1005900085FFF2CF808185FFEDCFCE010E942A0238
:1005A000E9CFDF91CF91089520918F04260F332753
:1005B000331F21323105ECF42091DE04FC0190E080
:1005C00080E0243069F082E00895A0918F042191A9
:1005D000AC0141595B4FA40FB52FB11D2C9301966F
:1005E000861798F380918F04680F60938F0480E0E2
:1005F000089581E008951092DE0481E08093DD0487
:100600001092B80461E082E10E94390161E083E167
:100610000E943901E9EBF0E080818E7F8083808148
:100620008D7F808388E48093B80085E48093BC004C
:100630000895CF93DF9391E090936E048823B9F0EF
:10064000C091B800D091BA008091BC008A7B8093A1
:10065000BC0060E082E10E94390160E083E10E9419
:1006600039010E94FB02D093BA00C093B800DF9119
:10067000CF9108950895E091B7048091B604E817EA
:1006800030F4F0E0E25BFB4F808190E008958FEF63
:100690009FEF08959091B7048091B6042FEF3FEF3C
:1006A000981748F4E92FF0E0E25BFB4F208130E03F
:1006B0009F5F9093B704C90108958091B60490910B
:1006C000B704891B990B0895CF92DF92EF92FF92A6
:1006D0000F931F93CF93DF937C01CB018A0120916D
:1006E000E404222389F0EB016B01C40ED51ECC1566
:1006F000DD0569F06991D701ED91FC910190F081E0
:10070000E02DC7010995F3CF642F0E94D402C801E0
:10071000DF91CF911F910F91FF90EF90DF90CF90DD
:100720000895CF93DF931F92CDB7DEB769832091F1
:10073000E4042223F9F020910705203258F021E04B
:1007400030E0FC013383228390E080E00F90DF9162
:10075000CF9108958091E504E82FF0E0EA51FB4F36
:10076000998190838F5F8093E5048093070581E0F2
:1007700090E0ECCF61E0CE0101960E94D402F7CF69
:1007800090E080E00895FC0101900020E9F73197A6
:10079000AF01481B590BBC0181E195E00C94AC0101
:1007A0008F929F92AF92BF920F931F93CF93DF933D
:1007B000CDB7DEB7A1970FB6F894DEBF0FBECDBFA1
:1007C00019A2423008F44AE08E010F5D1F4F842EBB
:1007D000912CB12CA12CA50194010E94C108E62FF7
:1007E000B901CA01EA30F4F4E05DD801EE938D015D
:1007F000232B242B252B79F790E080E0109719F01C
:10080000CD010E94C303A1960FB6F894DEBF0FBEC0
:10081000CDBFDF91CF911F910F91BF90AF909F906F
:100820008F900895E95CE1CF85E791E00C94C303D4
:10083000CF93DF930E949902EC010E9414048C0F65
:100840009D1FDF91CF910895CF93DF93D0E0C0E05B
:10085000009719F00E94C303EC010E9414048C0F4E
:100860009D1FDF91CF910895CF93C82F88E690E028
:100870000E949902C03128F460E381E195E00E9472
:100880004C026C2F70E090E080E040E1CF910C943E
:10089000D00385ED8093BC008091E0049091E10449
:1008A000A091E204B091E3040796A11DB11D23E0DD
:1008B000B695A795979587952A95D1F72091BC0075
:1008C00024FD03C01092DE0408954091E00450918D
:1008D000E1046091E2047091E304452B462B472B21
:1008E00069F30097A105B10541F02AE22A95F1F7D5
:1008F00000C00197A109B109E1CF8091DF040C94F8
:1009000019031F920F920FB60F9211242F933F934A
:100910008F939F93AF93BF938091090590910A05A0
:10092000A0910B05B0910C053091080523E0230F31
:100930002D3758F50196A11DB11D20930805809310
:10094000090590930A05A0930B05B0930C058091BF
:100950000D0590910E05A0910F05B091100501961F
:10096000A11DB11D80930D0590930E05A0930F0559
:10097000B0931005BF91AF919F918F913F912F91AF
:100980000F900FBE0F901F90189526E8230F029628
:10099000A11DB11DD2CF1F920F920FB60F9211243D
:1009A0002F933F934F935F936F937F938F939F9377
:1009B000AF93BF93EF93FF9381E195E00E942A02EA
:1009C000FF91EF91BF91AF919F918F917F916F9127
:1009D0005F914F913F912F910F900FBE0F901F90FD
:1009E00018951F920F920FB60F9211242F938F9389
:1009F0009F93EF93FF93E0912105F0912205808171
:100A0000E0912705F091280582FD1BC0908180911F
:100A10002A058F5F8F7320912B05821741F0E0919B
:100A20002A05F0E0EF5EFA4F958F80932A05FF913B
:100A3000EF919F918F912F910F900FBE0F901F906C
:100A400018958081F4CF1F920F920FB60F92112448
:100A50002F933F934F935F936F937F938F939F93C6
:100A6000AF93BF93EF93FF938091B900887F803657
:100A700009F44AC0F0F5883209F4A7C018F58031AE
:100A800009F49BC0B8F4882309F4F9C0883009F44C
:100A900094C0FF91EF91BF91AF919F918F917F9102
:100AA0006F915F914F913F912F910F900FBE0F90DB
:100AB0001F901895883109F488C0803251F78093CF
:100AC000DC0414C0803409F49DC040F48033B9F3D1
:100AD0008833F9F68093DC0485ECB0C0803509F4E6
:100AE00085C0883509F496C0883499F60E94490477
:100AF000D0CF883909F48CC038F5883729F050F404
:100B0000883611F0803729F683E08093DE04109256
:100B1000B10457C0883809F47BC0803919F0803897
:100B200009F0B7CF8091B104803208F071C0E09134
:100B3000B10481E08E0F8093B1048091BB00F0E09E
:100B4000EF56FB4F80833DC0803B39F0E0F4803AA4
:100B500009F479C0883A09F09CCF84E08093DE04E0
:100B60001092900410928F04E091B404F091B504B7
:100B7000099580918F0481110FC081E080938F04CB
:100B800010926F0409C0803C09F4A6CF883C09F498
:100B9000A3CF883B09F07DCFE091900481E08E0FD8
:100BA00080939004F0E0E159FB4F80818093BB007B
:100BB0009091900480918F0429C08091B904809312
:100BC000BB0085EC8093BC0064CF9091DB048091E6
:100BD000DA04981758F5E091DB0481E08E0F8093DA
:100BE000DB04F0E0E654FB4F8081E9CFE091DB04C9
:100BF00081E08E0F8093DB048091BB00F0E0E6542F
:100C0000FB4F80839091DB048091DA049817C8F23F
:100C100085E8D8CFE091DB0481E08E0F8093DB0480
:100C20008091BB00F0E0E654FB4F80838091DD04AF
:100C300081115CCF81E08093B80484EA8093BC008A
:100C40001092DE0426CF85EC8093BC001092DE0467
:100C50008091B104803230F4E091B104F0E0EF56BD
:100C6000FB4F10826091B10470E0E091B204F0910A
:100C7000B30481E994E009951092B1040ACF10926F
:100C8000DC0434CFE1E1F5E01382128288EE93E0D8
:100C9000A0E0B0E084839583A683B78325E531E0A7
:100CA0003183208325EC30E03587248724EC30E045
:100CB0003787268720EC30E0318B208B21EC30E029
:100CC000338B228B22EC30E0358B248B26EC30E00A
:100CD000378B268B118E128E138E148EEEEAF5E072
:100CE0001382128284839583A683B78387E691E07B
:100CF000918380830895CF93DF93CDB7DEB760975C
:100D00000FB6F894DEBF0FBECDBF789484B5826075
:100D100084BD84B5816084BD85B5826085BD85B59F
:100D2000816085BD80916E00816080936E0010921D
:100D30008100809181008260809381008091810098
:100D40008160809381008091800081608093800029
:100D50008091B10084608093B1008091B000816087
:100D60008093B00080917A00846080937A008091B3
:100D70007A00826080937A0080917A00816080930B
:100D80007A0080917A00806880937A001092C10086
:100D9000E0912105F091220582E08083E0911D051C
:100DA000F0911E051082E0911F05F091200580E171
:100DB000808310922905E0912505F091260586E0B3
:100DC0008083E0912305F0912405808180618083F8
:100DD000E0912305F0912405808188608083E09173
:100DE0002305F0912405808180688083E0912305AC
:100DF000F091240580818F7D80838FB7F894409196
:100E0000090550910A0560910B0570910C058FBF83
:100E10001092B7041092B6041092E50410920705E0
:100E20000E94FB028AEA91E09093B5048093B40497
:100E30008BEA91E09093B3048093B2040E9414046F
:100E40008BE690E00E941804CE0101967C0172E0CE
:100E5000372E22242A948FEA91E00E94180410E091
:100E600008E0DD24D39455EEC52E65EC962ED09285
:100E7000E404009306051092E504109207050E9411
:100E800085012B013C018091DE04811162C030920A
:100E9000DE04D092DD042092DC041092DB04109278
:100EA000DA041092B9049091B904802F880F892B2D
:100EB0008093B9048091B804813009F0B8C01092D1
:100EC000B8040E9485012B013C018091B9048093F4
:100ED000BB008091E0049091E104A091E204B09104
:100EE000E304892B8A2B8B2BA1F00E948501209192
:100EF000E0043091E1044091E2045091E30464196C
:100F0000750986099709261737074807590708F40E
:100F100041C08091BC0083FDD8CF9092BC000E945C
:100F200085012B013C018091DE04823009F482C0EE
:100F30008091DC048F3F09F49FC08091DC048032F3
:100F400009F49CC08091DC04803309F499C084E0EA
:100F500026C08091E0049091E104A091E204B09158
:100F6000E304892B8A2B8B2B09F48DCF0E948501FA
:100F70002091E0043091E1044091E2045091E304B7
:100F8000641975098609970926173707480759070D
:100F900008F079CF8091DF040E94190385E0109258
:100FA000E504109207051092E404811188C0103105
:100FB00020F4F701E10FF11D00831F5F193108F4E0
:100FC00061C08EE591E00E9418040E9485014B01EA
:100FD0005C0180E1482E87E2582E612C712C0E9422
:100FE0008501681979098A099B09683E7340810562
:100FF0009105A8F3F1E04F1A51086108710828EE35
:10100000820E23E0921EA11CB11C41145104610404
:10101000710429F780E090E0892B09F41CCF0E942D
:101020001602882309F417CF0E94000014CFC09243
:10103000BC0075CF8091E0049091E104A091E2049E
:10104000B091E304892B8A2B8B2B09F46CCF0E947F
:1010500085012091E0043091E1044091E204509137
:10106000E3046419750986099709261737074807A5
:10107000590708F058CF8ECF80E091CF82E08FCF14
:1010800083E08DCF81E591E00E949902802F0E943C
:1010900034048DE491E00E949902E0E0F1E090E0F8
:1010A00080E02081021322C0FC01EE0FFF1FE80F39
:1010B000F91FE050FF4F818192810E9424040F5F4D
:1010C000083709F0D4CE0E941404111117C085E32B
:1010D00091E00E94180481EE90E00E9418048CE8D0
:1010E00090E00E9418040E9414046FCF019633967A
:1010F0008B319105B1F688E791E0DFCF8DEC90E080
:101100000E949902612F70E090E080E04AE00E9426
:10111000D00388EB90E00E941804D12E90E1911743
:1011200010F430E1D32E870181EB90E00E94990208
:10113000F801C1908F018C2D0E9434048EEA90E05A
:101140000E949902E0E0F1E090E080E02081C2128C
:1011500010C0FC01EE0FFF1FE80FF91FE050FF4F1A
:10116000818192810E942404802F8E198D15E0F2D6
:10117000B6CF019633968B31910541F788E791E020
:10118000F1CFA1E21A2EAA1BBB1BFD010DC0AA1FA5
:10119000BB1FEE1FFF1FA217B307E407F50720F0E0
:1011A000A21BB30BE40BF50B661F771F881F991F5B
:1011B0001A9469F760957095809590959B01AC01A4
:1011C000BD01CF010895EE0FFF1F0590F491E02DB2
:0611D0000994F894FFCF22
:1011D6000D87011D98011EAE0123BF0127D30129EA
:1011E600F6013817023931023C53023D6F023F8A3D
:1011F6000240A00244CF0248E9024A0303501D03FD
:10120600512A035336035752035A700360960361FB
:10121600B10362C20368D90369F903761304773010
:1012260004000000004C02AC01D901B4020A02E835
:1012360001FC010000000091036403C0033A035D52
:10124600034A033B030D0A00756E6B6E6F776E20C3
:1012560064657669636500514D43353838334C20F3
:10126600636F6D70617373004144584C333435209D
:10127600616363656C65726F6D6574657200484D78
:1012860043353838334C20636F6D70617373004299
:101296004831373530206C696768742073656E7322
:1012A6006F720050434638353734204C4344206231
:1012B60061636B7061636B202F20494F20657870E6
:1012C600616E64657200564C35334C305820646943
:1012D6007374616E6365202F2054534C323536315A
:1012E600206C696768740041485431302F41485476
:1012F60032302074656D702B68756D696469747918
:101306000054534C32353631206C69676874202F8F
:1013160020415044532D3939363020676573747532
:10132600726500535344313330362F5348313130D0
:1013360036204F4C454420646973706C61790053C4
:10134600534431333036204F4C45442028616C7469
:1013560020616464726573732900504346383537DB
:101366003441204C4344206261636B7061636B00BF
:10137600494E413231392063757272656E74202F81
:10138600204854553231442068756D696469747912
:10139600202F20504341393638352050574D0053C1
:1013A600485433312F53485434302074656D702BB4
:1013B60068756D696469747900414453313131351A
:1013C60020414443202F20544D5031303220746543
:1013D6006D7000414453313131352041444320285A
:1013E600616C7420616464726573732900415432C0
:1013F600344320454550524F4D005043463835360C
:101406003320525443004144584C333435206163F1
:1014160063656C65726F6D657465722028616C74A6
:101426002900415432344320454550524F4D202F18
:10143600204D415833303130322070756C73650061
:101446004D4C5839303631342049522074656D7010
:10145600202F204343533831312061697220717542
:10146600616C697479004D435034373235204441FC
:1014760043202F2041544543432063727970746F93
:1014860000534344333020434F322073656E736FED
:10149600720053434434302F534344343120434F76
:1014A600322073656E736F72004D5055363035308D
:1014B60020494D55202F204453313330372F445384
:1014C6003332333120525443004D50553630353087
:1014D60020494D552028616C7420616464726573DF
:1014E600732900424D503238302F424D4532383044
:1014F6002070726573737572652028616C7429009B
:10150600424D503238302F424D453238302F424D01
:0E151600503138302070726573737572650045
:00000001FF
