:020000040000FA
:100000000C9462000C948A000C948A000C948A0070
:100010000C948A000C948A000C948A000C948A0038
:100020000C948A000C948A000C948A000C948A0028
:100030000C948A000C948A000C948A000C948A0018
:100040000C940B020C948A000C947B020C945502C5
:100050000C948A000C948A000C948A000C948A00F8
:100060000C948A000C948A000000000024002700F1
:100070002A0000000000250028002B0000000000DE
:1000800023002600290004040404040404040202DA
:100090000202020203030303030301020408102007
:1000A0004080010204081020010204081020000012
:1000B0000008000201000003040700000000000027
:1000C0000000BA0311241FBECFEFD8E0DEBFCDBFC2
:1000D00011E0A0E0B1E0EEEDF7E002C005900D9276
:1000E000AA32B107D9F721E0AAE2B1E001C01D921E
:1000F000A03DB207E1F710E0C2E6D0E004C02197CE
:10010000FE010E94E703C136D107C9F70E94AD0284
:100110000C94ED030C940000833081F028F48130BE
:1001200099F08230A9F008958730A9F08830C9F09D
:100130008430B1F4809180008F7D03C08091800075
:100140008F7780938000089584B58F7784BD08955C
:1001500084B58F7DFBCF8091B0008F778093B00006
:1001600008958091B0008F7DF9CFCF93DF93EBEBB3
:10017000F0E08491E7EAF0E0D491E3E9F0E0C491A3
:10018000CC23A1F081110E948C00EC2FF0E0EE0F47
:10019000FF1FE458FF4FA591B491EC91ED2381E04E
:1001A00090E009F480E0DF91CF91089580E090E045
:1001B000FACF3FB7F8948091CC019091CD01A091F6
:1001C000CE01B091CF0126B5A89B05C02F3F19F0F5
:1001D0000196A11DB11D3FBFBA2FA92F982F8827C7
:1001E000BC01CD01620F711D811D911D42E0660FA2
:1001F000771F881F991F4A95D1F70895AF92BF9234
:10020000CF92DF92EF92FF920F931F93CF93DF93E2
:100210006C017B018B01040F151FEB015E01AE1811
:10022000BF08C017D10759F06991D601ED91FC9133
:100230000190F081E02DC6010995892B79F7C50160
:10024000DF91CF911F910F91FF90EF90DF90CF90B2
:10025000BF90AF900895FC01538D448D252F30E061
:10026000842F90E0821B930B541710F0CF960895C3
:1002700001970895FC01918D828D981761F0A28DF0
:10028000AE0FBF2FB11D5D968C91928D9F5F9F73B6
:10029000928F90E008958FEF9FEF0895FC01918D6C
:1002A000828D981731F0828DE80FF11D858D90E0D9
:1002B00008958FEF9FEF0895FC01918D228D892F76
:1002C00090E0805C9F4F821B91098F73992708955E
:1002D0008AE291E00E945C0121E0892B09F420E090
:1002E000822F089580E090E0892B29F00E94680118
:1002F00081110C9400000895FC01A48DA80FB92F62
:10030000B11DA35ABF4F2C91848D90E001968F733D
:100310009927848FA689B7892C93A089B1898C915C
:10032000837080648C93938D848D981306C00288AB
:10033000F389E02D80818F7D80830895EF92FF9275
:100340000F931F93CF93DF93EC0181E0888F9B8DF8
:100350008C8D98131AC0E889F989808185FF15C0B2
:100360009FB7F894EE89FF896083E889F9898081D5
:100370008370806480839FBF81E090E0DF91CF91A4
:100380001F910F91FF90EF900895F62E0B8D10E0C6
:100390000F5F1F4F0F731127E02E8C8D8E110CC035
:1003A0000FB607FCFACFE889F989808185FFF5CF80
:1003B000CE010E947C01F1CFEB8DEC0FFD2FF11DE2
:1003C000E35AFF4FF0829FB7F8940B8FEA89FB89BD
:1003D00080818062CFCFCF93DF93EC01888D88231B
:1003E000B9F0AA89BB89E889F9898C9185FD03C098
:1003F000808186FD0DC00FB607FCF7CF8C9185FF7D
:10040000F2CF808185FFEDCFCE010E947C01E9CF44
:10041000DF91CF9108951F920F920FB60F92112482
:100420002F933F938F939F93AF93BF938091C80176
:100430009091C901A091CA01B091CB013091C7013F
:1004400023E0230F2D3758F50196A11DB11D2093F0
:10045000C7018093C8019093C901A093CA01B093CA
:10046000CB018091CC019091CD01A091CE01B091B2
:10047000CF010196A11DB11D8093CC019093CD01B8
:10048000A093CE01B093CF01BF91AF919F918F9177
:100490003F912F910F900FBE0F901F90189526E857
:1004A000230F0296A11DB11DD2CF1F920F920FB63E
:1004B0000F9211242F933F934F935F936F937F93EA
:1004C0008F939F93AF93BF93EF93FF938AE291E053
:1004D0000E947C01FF91EF91BF91AF919F918F910D
:1004E0007F916F915F914F913F912F910F900FBE30
:1004F0000F901F9018951F920F920FB60F92112414
:100500002F938F939F93EF93FF93E0913A01F09194
:100510003B018081E0914001F091410182FD1BC0CF
:100520009081809143018F5F8F73209144018217E6
:1005300041F0E0914301F0E0E65DFE4F958F80933E
:100540004301FF91EF919F918F912F910F900FBEDB
:100550000F901F9018958081F4CF789484B58260B5
:1005600084BD84B5816084BD85B5826085BD85B557
:10057000816085BD80916E00816080936E001092D5
:100580008100809181008260809381008091810050
:1005900081608093810080918000816080938000E1
:1005A0008091B10084608093B1008091B00081603F
:1005B0008093B00080917A00846080937A0080916B
:1005C0007A00826080937A0080917A0081608093C3
:1005D0007A0080917A00806880937A001092C1003E
:1005E000C7EAD0E0FE01249103E910E0F80184910C
:1005F000882399F090E0880F991FFC01E859FF4F7C
:10060000A591B491FC01EE58FF4F859194918FB75D
:10061000F8949C91292B2C938FBFE0913A01F09193
:100620003B0182E08083E0913601F0913701108236
:10063000E0913801F091390180E18083109242010C
:10064000E0913E01F0913F0186E08083E0913C0122
:10065000F0913D01808180618083E0913C01F091C7
:100660003D01808188608083E0913C01F0913D01F3
:10067000808180688083E0913C01F0913D01808120
:100680008F7D80832BEB822E20E0922E30E0A32EF4
:1006900030E0B32E0E94B5007C01F4018491FE018C
:1006A000D490F801C490CC20A1F081110E948C005C
:1006B000EC2DF0E0EE0FFF1FEE58FF4FA591B49127
:1006C0008FB7F8949C91EF2859F1D094D922DC92FD
:1006D0008FBF0E94B50062E171E0892B11F06DE1DE
:1006E00071E0FB0101900020E9F73197AF01461B53
:1006F000570B8AE291E00E94FE0042E050E067E280
:1007000071E08AE291E00E94FE000E94D9002B0174
:100710003C018CEDC82E85E0D82EE12CF12C12C0C6
:10072000D92AD5CFF1E0CF1AD108E108F10828EE97
:10073000420E23E0521E611C711CC114D104E1045D
:10074000F10461F00E94D9006419750986099709BE
:10075000683E73408105910528F7F4CFA114B104D8
:1007600009F498CF0E946801882309F493CF0E946E
:10077000000090CFEAE2F1E01382128288EE93E06B
:10078000A0E0B0E084839583A683B78384E091E002
:100790009183808385EC90E09587848784EC90E05A
:1007A0009787868780EC90E0918B808B81EC90E03E
:1007B000938B828B82EC90E0958B848B86EC90E01F
:1007C000978B868B118E128E138E148E0895EE0FDA
:1007D000FF1F0590F491E02D0994F894FFCF0000DD
:1007E00000009E01FE002B01EB015C013A014E016D
:1007F0004C4544206973204F4646004C45442069CF
:0808000073204F4E000D0A00A9
:107E0000112484B714BE81FFF0D085E080938100F7
:107E100082E08093C00088E18093C10086E0809377
:107E2000C20080E18093C4008EE0C9D0259A86E02C
:107E300020E33CEF91E0309385002093840096BBD3
:107E4000B09BFECF1D9AA8958150A9F7CC24DD24C4
:107E500088248394B5E0AB2EA1E19A2EF3E0BF2EE7
:107E6000A2D0813461F49FD0082FAFD0023811F036
:107E7000013811F484E001C083E08DD089C08234E0
:107E800011F484E103C0853419F485E0A6D080C0E4
:107E9000853579F488D0E82EFF2485D0082F10E0AE
:107EA000102F00270E291F29000F111F8ED06801E7
:107EB0006FC0863521F484E090D080E0DECF843638
:107EC00009F040C070D06FD0082F6DD080E0C81688
:107ED00080E7D80618F4F601B7BEE895C0E0D1E017
:107EE00062D089930C17E1F7F0E0CF16F0E7DF06D8
:107EF00018F0F601B7BEE89568D007B600FCFDCFD4
:107F0000A601A0E0B1E02C9130E011968C91119780
:107F100090E0982F8827822B932B1296FA010C0160
:107F200087BEE89511244E5F5F4FF1E0A038BF0790
:107F300051F7F601A7BEE89507B600FCFDCF97BE46
:107F4000E89526C08437B1F42ED02DD0F82E2BD052
:107F50003CD0F601EF2C8F010F5F1F4F84911BD097
:107F6000EA94F801C1F70894C11CD11CFA94CF0C13
:107F7000D11C0EC0853739F428D08EE10CD085E9AC
:107F80000AD08FE07ACF813511F488E018D01DD067
:107F900080E101D065CF982F8091C00085FFFCCF94
:107FA0009093C60008958091C00087FFFCCF809118
:107FB000C00084FD01C0A8958091C6000895E0E648
:107FC000F0E098E1908380830895EDDF803219F02E
:107FD00088E0F5DFFFCF84E1DECF1F93182FE3DFCA
:107FE0001150E9F7F2DF1F91089580E0E8DFEE27F6
:047FF000FF270994CA
:027FFE00040479
:00000001FF
