:10400000008000207D4F0000674F0000674F0000D8
:1040100000000000000000000000000000000000A0
:10402000000000000000000000000000674F0000DA
:104030000000000000000000674F0000D14F0000AA
:10404000674F0000674F0000674F0000674F000098
:10405000674F0000674F0000674F0000694F000086
:10406000674F0000BD460000674F0000674F00002B
:10407000674F0000674F0000CD460000674F00000B
:10408000674F0000674F0000674F00007944000051
:1040900000000000674F0000674F0000674F0000FE
:1040A000674F0000674F0000674F0000674F000038
:1040B0000000000010B5064C2378002B07D1054BFB
:1040C000002B02D0044800E000BF0123237010BD84
:1040D0008C0000200000000084770000044B10B525
:1040E000002B03D00349044800E000BF10BDC046C8
:1040F00000000000900000208477000070B5194C8B
:10410000200000F0C5FE184D2000290000F0C8FE78
:104110001649200000F0C4FE1549200000F0AEFE54
:104120001449200000F0BCFE1349200000F0A6FE58
:104130001249200000F0A2FE1149200000F09EFE6E
:104140001049200000F0ACFE0F49200000F0A8FE4E
:104150000E49200000F0A4FE2900200000F0A0FE7F
:1041600070BDC0461801002074700000A7700000E8
:10417000C2700000CD700000E8700000F370000015
:10418000CB700000FF700000087100003471000067
:10419000F8B5474F474C3B684749013320003B6027
:1041A000002500F07DFE454E2900300000F064FA45
:1041B0004349200000F062FE29000A22200000F09E
:1041C000BCFE05351E2000F047FFB92DEBD13D495F
:1041D000200000F065FE053D2900300000F04CFA9B
:1041E0003749200000F04AFE29000A22200000F092
:1041F000A4FE053D1E2000F02FFF6B1DECD13249BF
:10420000200000F04DFE08355A21300000F034FA4D
:1042100001210D2001F00EF9962000F01DFF3C2138
:10422000300000F029FA00210D2001F003F9013DD2
:10423000962000F011FF002DE6D100F0D7FE060019
:1042400000F0D4FE214B801B984230D800F0CEFE07
:104250001F4D2B68C01A1F4B9842F1D900F0C6FEC3
:1042600028600D2001F012F9414241410D20C9B2F0
:1042700001F0E0F81849200000F000FE0A22396839
:10428000200000F064FE1549200000F0F7FD00F06A
:10429000ADFEFA21890002F04FFC0A220100200045
:1042A00000F055FE0E49200000F0FAFDC8E7F8BD09
:1042B000AC000020180100205D710000B00000205B
:1042C0007971000080710000A0710000CF0700002C
:1042D000A8000020E7030000C6710000D8710000AC
:1042E000E271000010B5024800F0D0F810BDC046E1
:1042F000B0000020F8B501210D2001F04FF8E121B8
:10430000124D4902280000F04FFB032400F06EFE1E
:104310000D27FFF7F3FE78260121380001F08AF817
:10432000300000F099FE0021380001F083F8013CD4
:10433000300000F091FE002CEED10921044800F07D
:104340006BF92800034900F0ABFDF8BD180100200F
:10435000B0000020FA710000F7B50C27404E019321
:10436000335C04005BB20D0000924743002B2EDA51
:1043700000230B82EB7BDB09FCD1335D394A01332F
:104380005BB23355335D12785BB2DB19934203DACB
:10439000335D5BB20B2B34DD2F8ABFB2EB7BDB09C5
:1043A000FCD1314B3149186802F0C6FB304B043761
:1043B0005843009B00090C3387424DD280B25B000A
:1043C0005853EB7BDB09FCD1FF33335540E0335CC2
:1043D000244A5BB21278DB199342CEDA335C254A69
:1043E0005BB2DB19DB009B5C5B06C6D5335C00214E
:1043F0005BB2DB19DB00985C8006800E01F01AF8D6
:10440000BBE7335D1B4A5BB2DB19DB009B5C5B06E1
:1044100009D5335D01215BB2DB19DB00985C8006B6
:10442000800E01F007F82A8A92B2EB7BDB09FCD1FF
:10443000335D5BB2DF190F4BFF00DF197B68D318C8
:10444000009A9BB20C3252005353EB7BDB09FCD138
:104450006B461B79AB73F7BDBFB25B005F53B0E730
:10446000B4000020B30000200000002040420F00F4
:10447000204E0000B8000020002210B51023024991
:104480001000FFF769FF10BD0030004270B50C4B03
:1044900005001C780B2C10D8621C1A70094B047094
:1044A0001868094902F048FB084BE4005843084BE0
:1044B00000091C196060280070BDFF230370FAE733
:1044C000B30000200000002040420F00DC05000087
:1044D000B8000020F7B50193037804000E00170020
:1044E0000B2B00D986E0C8B2012100F057FF3F2115
:1044F00032002078404DC3005E5D0A408E43164373
:104500005E558823032296219B00DB1BDF17174093
:10451000FF18019B0901C91ACB1713405B189B10A8
:10452000BF10A37067700C2102F006FB0C23C0B211
:1045300043431A000C32D900695C490654D4013354
:104540009342F8D100284FD12C4B2D4A5A805A78EB
:10455000D209FCD12B4E0232338893433380F37B54
:10456000DB09FCD101333380F37BDB09FCD13388D9
:10457000DB07FCD433889BB233804023328813435B
:10458000338080233288DB00134333800123327968
:1045900013433371F37BDB09FCD11B4B1B491868B8
:1045A00002F0CAFA0300FA2080005843000980B2E2
:1045B0003083F37BDB09FCD18021154B0903D967DC
:1045C000C023C420134A5B00D150800013581B0243
:1045D0001B0A135010231160737332880E3B134370
:1045E0003380F37BDB09FCD140222378DB00E95CDC
:1045F0000A43EA542078FEBDB8000020000C0040B9
:104600001C400000003000420000002040420F002B
:1046100004E100E000E100E09623882210B51B01D0
:104620009200FFF757FF10BD70B505780B2D1BD812
:1046300001238824C356E41AA4008C4208DC962483
:104640008078A40040B2241AA4008C4200DD0C0043
:10465000064B0749186802F06FFA053C6043054BAA
:10466000ED0000095D19686070BDC04600000020C3
:1046700040420F00B80000200F4B13B504009942D0
:1046800016DCB420B42902DCC843C017084001225C
:104690008823A25602219B1A962261569200521A32
:1046A0009200009200219B00B42200F0B3FB0100B5
:1046B0002000FFF7B9FF13BD1F02000010B502482C
:1046C00000F0EDFA10BDC0465C03002010B50248B2
:1046D00000F0E5FA10BDC04618010020F7B501242E
:1046E0000326154F1549380000F042F814491548C3
:1046F00000F03EF81449154800F03AF814491548FE
:1047000000F036F81449154800F032F8144D1549F8
:10471000280000F02DF839000096230001940022B3
:10472000114800F035FA0096290001942323242231
:104730000E4800F02DFAF7BDA00500200008004249
:10474000000C0042A805002000100042B005002027
:1047500000140042B805002000180042C0050020E7
:10476000C8050020001C00425C0300201801002046
:1047700000230371016070479446F0B59E1E721EBF
:1047800096416246056892072F6836063A433243DF
:104790002A60072505AC24780068A401294021433C
:1047A00042680024022B00D05C0311432143416086
:1047B000F0BD30B5C0250368AD031C6812052A4062
:1047C0002243C0240904A402214011431960036854
:1047D0005A6814435C6030BD0123026811680B43C2
:1047E000136003681A68D207FCD4DA69D207F9D4D7
:1047F00070470223026811680B4313600268D36993
:104800009B07FCD470470268137E9B0702D4037990
:10481000002BF9D1002303717047002203685A83EB
:1048200070470368187E4007C00F70470368187E02
:10483000C0097047802302685B42117E0B431376E8
:1048400070470368588B8007C00F704702230268C7
:10485000518B0B43538370470368187EC007C00F0A
:1048600070470368188DC0B2704703681A7ED2077C
:10487000FCD589B219850123037118007047012204
:1048800003689A757047012203681A757047000023
:104890000368214A30B593422FD0204A93422FD04B
:1048A0001F4A93422FD01F4A93422FD01E4A934251
:1048B0002FD01E4A93421FD10E2319220121032516
:1048C00099401B48C024016099082B40AB40FC353F
:1048D0009D4089000918A4000859A843C0259D409F
:1048E0002B0003430B518023DB011A43114B5A80E9
:1048F0005A7852B2002AFBDB30BD09231422DDE7CF
:104900000A231522DAE70B231622D7E70C231722F6
:10491000D4E70D231822D1E700080042000C004222
:10492000001000420014004200180042001C004227
:1049300000E100E0000C0040F8B504000F00160094
:104940001D00FFF7A5FF2000FFF746FF1C21BB005D
:104950000B4071072268090C0B4313608423226803
:104960009375012F1AD11021012E00D008390C4B5C
:1049700069431868C00002F0DFF80722216802408E
:104980008B895203DB04DB0C13438B812268030405
:104990009089DB0C400B400318439081F8BDC04662
:1049A000000000200120704710B50368014A1B6A0F
:1049B000984710BD13040000FC30006A704787233D
:1049C0009B00C018C36880204000C01A70470300D5
:1049D000FC331A6A002A03D0DB69C018007D7047D7
:1049E00001204042FBE710B504000069FFF7F4FE28
:1049F00022000023FC329361D3611362872292006C
:104A0000A4186360A360E36010BD872310B59B000A
:104A1000C218D368002BFCD10069FFF7F4FE10BD6B
:104A20000368002B02D162B6BFF36F8F7047F0208E
:104A300001403039484248417047F0231B0119407A
:104A4000802306209B0099420AD00133FF330130B6
:104A5000994205D0802302385B00994200D00020A3
:104A600070470F2001400020012903D00239481E61
:104A70008141481C704700008B23F0B5182685B093
:104A800002919B000400C05C330008214343324D77
:104A90001700EB18595600F011FD304B0821E05C6F
:104AA00033004343EB18595600F008FD2C4BE25CF1
:104AB0000393022A09D11133E05CFF2805D00821B5
:104AC0004643AE19715600F0F9FC8C26B600A05D85
:104AD000FF2819D0012100F061FC1822A35D2149B3
:104AE0005A43AB56AD18DB0158188D218900605030
:104AF0001D4901225B188E218900635069688A4034
:104B00008F21890062501A600122029B11002069E6
:104B1000FFF712FF39002000FFF78FFF3900050073
:104B20002000FFF79EFF390006002000FFF77FFFFF
:104B300033000090290020690122FFF71DFE0B4B76
:104B40002069E25C039BE15CFFF733FE2069FFF71D
:104B500050FE05B0F0BDC046147200002D020000EA
:104B60002F02000018440041144400412E020000AE
:104B7000802210B504005200002102F094F92300B5
:104B80000022FC335A6020009A60DA6010BD0000F9
:104B9000F7B51D0008AB1B780400009309AB1B7828
:104BA0001600019300234360FA239B008360114B9E
:104BB0000F00083303601430FFF7DAFF20002130C4
:104BC000FF30FFF7D5FF8B236A469B002761E65431
:104BD000094B1278E554094B2000E2546A46084B11
:104BE0001279E2548C22313BFF3B9200A3541032E5
:104BF000A354FEBD947600002D0200002E0200009A
:104C00002F020000F7B5EFF3108300930123019307
:104C100072B680260200FF25019BFC327600013B24
:104C20005C1C0FD0D4685F1EB44209D05468015593
:104C3000546801342C405460D4680134D460EEE7E9
:104C40003B00EDE768460193FFF7EAFEF7BD13B5B9
:104C5000EFF3108300930123019372B6019B5A1E58
:104C60000192002B15D00300FC33DA68002A0DD026
:104C70009A68845C9A680132D2B29A60DA68013A22
:104C8000DA606846FFF7CCFE200016BD01246442BE
:104C9000F7E701246846FFF7C3FE6442F4E710B566
:104CA00004000069FFF7CDFD002805D02069FFF75B
:104CB000D8FD2069FFF7CAFD2069FFF7B2FD002883
:104CC0001BD02069FFF7CDFD010020001430FFF755
:104CD00099FF8C239B00E35CFF2B0ED02300FC3359
:104CE0001A6A80235B009B1A092B06DC8D238F2216
:104CF0009B009200E358A2581A602069FFF7ACFDB0
:104D000000280ED087239B00E318DB68002B14D00B
:104D100020002130FF30FFF79AFFC1B22069FFF772
:104D2000A4FD2069FFF782FD002805D02069FFF768
:104D300081FD2069FFF771FD10BD2069FFF7A3FD1C
:104D4000EFE70000F8B5040000690D00FFF784FDEF
:104D500087239B00E618002802D0F368002B34D08C
:104D600001278022F3685200934223D1EFF310838E
:104D70003B4210D1174B5B68DB05DB0DF1D0103BDC
:104D80005BB2002B10DAF13A1340083B9B08124A41
:104D90009B009B181B682069FFF75EFD0028E0D090
:104DA0002000FFF77CFFDCE79B08C0330B4A9B0029
:104DB0009B58F0E720002130FF302900FFF722FF49
:104DC0002069FFF75CFD0120F8BD29002069FFF78D
:104DD0004CFDF8E700ED00E01CED00E000E100E034
:104DE00010B504001430FFF732FF8C239B00E35C06
:104DF000FF2B0ED02300FC331A6A80235B009B1A22
:104E00000A2B06DD8E238F229B009200E358A258C6
:104E10001A6010BD10B51C00431A0298511A001BED
:104E2000584301F013FF001910BDF7B506000D003F
:104E30000C008B180193019B671B9C4207D03368C1
:104E400021781B683000984701340028F3D13800DE
:104E5000FEBD70B5040008000D0002F0E7F82368FD
:104E6000020029005B682000984770BD10B50B1E3A
:104E700002D0FFF7EEFF0300180010BD10B5FFF7DA
:104E8000F5FF10BD10B503681B68984710BD000002
:104E900010B50249FFF7DDFF10BDC046C87600001F
:104EA00070B50400FFF7E2FF05002000FFF7F0FFF8
:104EB000401970BDF0B58BB06B461500002205336C
:104EC0000600DA770800012D00D80A2509AC290070
:104ED00001F0B8FECAB2130037330700DBB209296C
:104EE00002D813003033DBB2013C2370002FEED127
:104EF00021003000FFF7BAFF0BB0F0BDF8B5060097
:104F00000C00151E04D10368C9B21B689847F8BD90
:104F10000A2A0CD100290BDA2D21FFF7B3FF6142D9
:104F200007002A003000FFF7C5FF3818EFE7D2B2BC
:104F300021003000FFF7BEFFE9E770B50400FFF77E
:104F4000DDFF05002000FFF7A3FF401970BD10B57D
:104F5000002A04D10368C9B21B68984710BDD2B2B9
:104F6000FFF7A8FFFAE7FEE7034B10B51B68002B1D
:104F700000D0984710BDC046D005002070B50F493D
:104F80000F4CA14204D100F0AFF800F08DF8FEE71D
:104F90000C4D00238D42F6D0CA18E818A24205D362
:104FA000094B8242EFD00949002204E00068043333
:104FB0001060F1E704C38B42FCD3E4E7000000205B
:104FC0008C000020887700008C000020180C002046
:104FD00010B500F066F8002801D100F057F810BDB8
:104FE000014B18607047C046D0050020014B18687F
:104FF0007047C046D4050020F7B513480122844607
:105000001249134C8E68636805689B0E1340019229
:1050100088686268019F920E3A4067463F689342F3
:105020000ED1BD420CD186420AD35B19FA254868DD
:10503000AD00861B07486B437043000DC018FEBDD2
:105040003D0013000600E3E7D405002010E000E077
:1050500000ED00E05555000070B5041E10D0FFF7BC
:10506000CBFF050000F01CF8FFF7C6FF054B401B07
:105070009842F7D9FA23013C9B00ED18002CF3D19C
:1050800070BDC046E70300007047000010B5034A3A
:1050900013680133136000F083FA10BDD4050020BB
:1050A000704700207047704710B500F0CDF801F050
:1050B000B9FEFFF7F8FF0120FFF7CEFF084C2000F4
:1050C00001F0EAF9200000F0EFFBFFF713F9FFF71A
:1050D0005FF8044B002BFAD000E000BFF7E7C046B2
:1050E00000060020000000001E2270B54648474917
:1050F000436893431C3A1343436008238C6923435A
:105100008B61434C434B9C829C8A14439C82DC6899
:105110001442FCD00124404A14701578254203D073
:1051200055786DB2002DF8DB01249460547864B298
:10513000002CFBDB394C5460547864B2002CFBDB50
:105140008224E4015480547864B2002CFBDB0224F6
:105150009C840E34DD682542FCD0314CDC62102486
:10516000DD682542FCD09D8C2E4C2C439C84102461
:10517000DD682542FCD002249D8C80262C439C8433
:105180004024DD683542FCD0DD682542F9D010248A
:10519000DD682542FCD000249460547864B2002C71
:1051A000FBDB214C5460547864B2002CFBDB1C6A9E
:1051B0001E4D2C4080251C621C6AAC431C620323DC
:1051C00093601B4B536053785BB2002BFBDB0023D7
:1051D000FF240B72174A4B728B72CB72164B1A60FC
:1051E000164B174A1B6811689A065B01C90E2340CB
:1051F000520F12020B431343124A13858023426855
:105200001343436070BDC0460040004100040040AD
:105210000C06000000080040000C004001050100E1
:10522000B905FF7D040A000000070300FFFCFFFF33
:1052300003060100006CDC020000002024608000F6
:105240002060800000400042FA21314B10B5186800
:10525000890001F071FC2F4B0138984256D82E4935
:105260002E4A4860C020136A00061B021B0A034333
:105270001362002407238C600B608021136A0906E7
:105280001B021B0A0B431362FC22254B196A0A43BB
:105290001A62FC22196A92010A431A62A022196A50
:1052A000D2020A431A62E0B20021013400F076F81B
:1052B000132CF8D11B4B1C005A7852B2002AFBDB8E
:1052C000194A5A80194B1A00597EC9090129FBD085
:1052D000E421C90099803F21D970537EDB09012B5D
:1052E000FBD0C02300205B011361907000F024F814
:1052F00063785BB2002BFBDB0D4B0E4A6380D379E6
:10530000DB09012BFBD04123537010BDFEE7C046E3
:1053100000000020FFFFFF0010E000E000ED00E0D3
:1053200000040040000C00401E400000004000420D
:105330002140000000480042164A00B51300517E8B
:10534000C9090129FBD00138042816D81969124A65
:105350000A400F211A615A788A4301F0E3FB0308DF
:10536000060B0300110001220A435A7000BD110010
:105370000322F9E711000222F6E7F02311691B0569
:105380000B430F21136153788B43190002230B4306
:105390005370EBE700400042FFFFFFF0182330B5E9
:1053A0001D00040045430820204A551928560130A5
:1053B00014D0032912D808006343D156D31801F042
:1053C000B1FB02280E1B5868CB010221184A9B181A
:1053D0001A1840321170012282405A6030BD58685C
:1053E000CB010621124A9B181A1840321170012273
:1053F00082405A609A61F1E75868CB0106210C4A55
:105400009B181A1840321170012282405A605A616A
:10541000E4E75868CB010221054A9B181A1840326C
:105420001170012282409A60D8E7C04614720000D1
:10543000004400411823F0B508245843114A1318BA
:105440001C5701341BD0012635005F688356BD40D0
:105450000D4ADB019A18906805420BD10C00601EC2
:105460008441D2194032107834400336A400B0434E
:1054700020431070044A9B18002901D15D61F0BDE2
:105480009D61FCE71472000000440041182310B530
:105490000824434307490020CA181457013408D090
:1054A0005B560549DB015B18186A5368D840012335
:1054B000184010BD147200000044004118224243FD
:1054C000F8B52C4E0300B218127A52B21400013211
:1054D0000ED0481C00240C280AD801F023FB07201A
:1054E000202020202020200B0B0B0B0001246442E5
:1054F0002000F8BD092905D10021D8B2FFF74EFFE1
:105500000024F5E70A2902D1D8B20839F6E70024C9
:105510000B29EDD1D8B20A39FFF740FFE8E7182090
:105520004343F2185568F3562C00134ADB016E080A
:1055300017389B18C9B204409E19002C0DD00F24B7
:1055400030363278090122401143C9B25B193170FB
:1055500040331A7810431870D2E732000F273032E8
:1055600016785B19BE433143117040331A781043EB
:105570001870BDE7147200000044004110B504002B
:10558000FFF782FD014B1C6010BDC04604000020E7
:105590000122024B52421A607047C04604000020AC
:1055A000164A10B51368591C26D0013B1360002B16
:1055B00022D172B6124B134A0433934213D9124AC2
:1055C00001211000147D0C42FCD02021148BFF31EE
:1055D0009B085B0021431183D3610C4B1380012393
:1055E000027D1A42FCD0BFF34F8F094B094ADA60A3
:1055F000BFF34F8FC046FDE710BDC046040000203A
:1056000000400000030200000040004102A5FFFF2F
:1056100000ED00E00400FA05704710B5040001F049
:1056200089F8200010BD0000F0B5822919D1C3B25D
:10563000294D5A01AA189169284C80010C40C021BB
:105640008905214391612649083340187021506132
:1056500028685B011A5C8A43110030220A431A54FD
:10566000F0BD0029FCD1C026C1B21B4C4B01E31890
:105670009A681A4DB6052A4032439A60194A800149
:1056800082185A600A000727246808325201115D07
:10569000B9430F000121394311559F6910493D401D
:1056A00040182E439E6158617020115D81430800AF
:1056B00010210143115599680B48A2180840802118
:1056C0004903014399609968890B890399604023D4
:1056D00011790B431371C3E7B80A0020FFFFFF8F56
:1056E0002C060020EC070020FF3F00F0EFF31083B2
:1056F00003600123436072B6704773B5836D040085
:10570000002B1BD10600A83635786846FFF7EEFF60
:10571000019BEDB2013B02D33578EDB2FAE7684662
:105720000193FFF77DF9002D01D1002076BD230004
:10573000A4331868A0342368C01AF7E76846FFF757
:10574000D5FF22000025019BF432013B02D31578DE
:10575000EDB2FAE768460193FFF762F9002DE4D055
:105760002300F0331868EC34E5E7000010B5436D12
:105770004468DBB25A01A21891680948083308400E
:10578000802149030143916091685B01890B890382
:1057900091602268D318402219790A431A7110BD0A
:1057A000FF3F00F0F7B5436D4268DBB2190004001B
:1057B0000831106849014118C979C90711D55B0141
:1057C000D21893689B049B0C0CD12000FFF7CEFFEE
:1057D00063681A68636DDBB208335B01D3187F22FC
:1057E000DA71F7BDE16D002923D12100A4310B60EE
:1057F00023000125AC33E56568465360FFF776FF6B
:10580000260020002100019BA836013BF430F53131
:105810005A1C33D0357002785F1ED2B20A700A78F3
:10582000002A04D120000193FFF7A0FFE8E73B0026
:10583000EEE72100F0310B600023E36523006033C5
:1058400053606846FFF752FF012526002000210023
:10585000019BF436013BA830F5315A1C0ED035704F
:1058600002785F1ED2B20A700A78002A04D12000A2
:105870000193FFF77BFFE8E73B00EEE76846019303
:10588000FFF7CEF8A4E737B56B46DC1D00230D000B
:10589000237000F039FF210000F0C4FE2B681818B7
:1058A000286020783EBD00000078002810D001213B
:1058B000084B1B681A898A431A810822198B0A43EC
:1058C0001A830422198B0A431A830022024B1A609E
:1058D0007047C046B80A0020B00A002010B50F4A31
:1058E00093699B0B9B03936113680222FF331A7227
:1058F0009879823A02439A711A7A9207FCD57F24EA
:10590000074A2140937A0800A343190080230143EA
:105910009172917A5B420B43937210BDB80A0020DA
:105920000050004110B50C0000F0EEFE210000F028
:10593000ACFE002804D1034A93699B0B9B0393613F
:1059400010BDC046B80A0020F8B50D00832A19D151
:10595000CBB23B4C5A01A21891693A48AD010840BC
:10596000C021890501439161374920686D18702174
:10597000083355615B011A5C8A43110040220A43D7
:105980001A54F8BD022A55D1304A8B009858002885
:1059900002D003685B699847F82000F0C7FE040056
:1059A000274E2B4B4660036040220021083001F057
:1059B0007AFA22000023A032A3646565E3642365BC
:1059C000A365E3655360D3641372136013654C32AF
:1059D00013725372FF222B0013405901711888680B
:1059E000184F08330740C02080053843886030686E
:1059F00007265B01195CAD00B1430E000321314362
:105A000019542300616D60681140490141186033E9
:105A10004B60616D63680A401B6852019B1801224C
:105A2000FF33997A20000A439A72FFF79FFE074BD3
:105A30005C51A6E711002800FFF7F6FDA1E7C0467C
:105A4000B80A0020FFFFFF8F2C060020040600206C
:105A5000D476000070B505000124064BA200D25890
:105A6000002A06D0210028000134FFF76DFF0A2C20
:105A7000F3D170BDD80500200B4BCAB20B48890189
:105A8000C9185301C318596199690832890B8903F0
:105A90009961036852019A180223D3715179823BAC
:105AA0000B4353717047C0462C060020B80A0020F3
:105AB000084B8A00D05810B5002803D003689B68B3
:105AC000984710BDC9B2044B490159188868800431
:105AD000800CF6E704060020B80A002010B50C0080
:105AE000FFF7E6FF00280CD0064BE4B21B68083431
:105AF00064011C19802362795B42134363710223A2
:105B0000E37110BDB80A0020F0B51C00304B85B021
:105B10001B6807000D000292002B55D02D4E3178E6
:105B2000C9B2002902D11E20FFF784FC6423337020
:105B3000294BAA00D058002808D0036822005B68CF
:105B4000029998470400200005B0F0BD29003800F4
:105B5000FFF7AEFF844204D929003800FFF7A8FF01
:105B600004000121EBB21D4E03935B010193F21877
:105B700093689B0B9B039360019A336802989B1870
:105B8000FF335A7A0A435A72154BA901C9182200E9
:105B900001F080F9002CD6D029003800FFF788FFEB
:105BA0000028D0D14021039B326808335B01D31811
:105BB0001879014319710121D971019BD318FF3361
:105BC0009A7A0A439A72BEE701246442BBE7C04650
:105BD000B00A00202006002004060020B80A002099
:105BE000EC07002013B56B46DC1D22000123FFF7F4
:105BF0008BFF012801D1207816BD01204042FBE730
:105C000070B5CBB2124A13485C0189018918021998
:105C100051609168104D08330D408021490329439C
:105C2000402591609168890B8903916001685A0150
:105C30008A1816793543157195796D06FCD55B0187
:105C4000C918CB79DB07FCD500198068C0B270BDDC
:105C5000EC070020B80A0020FF3F00F070B50D00EF
:105C600000211400FFF7CCFFA04200D92000002340
:105C70000349A34203D0CA5CEA540133F9E770BD7B
:105C8000EC070020F0B51E003F4B85B01B680F00ED
:105C90000192002B3FD08023DB019E423BD83B4C3E
:105CA0002178C9B2002902D11F20FFF7C3FB64236A
:105CB00000252370364BBA01D3180293002E2CD046
:105CC000344B1B680393FF233B401C0000930834B4
:105CD000039B64011C19A379DB0921D02E4B2F49AA
:105CE000186800F029FF2E4B1721584300F024FFBD
:105CF0002C4BE279920713D4DA5D002A01D10138E6
:105D0000F7D20122DA55009B5A01224B9B189A695F
:105D1000920B92039A6101256D42280005B0F0BDF7
:105D20000022204B3400DA553F2E09D9009B402435
:105D30005A01184B9B188022996912060A439A61EE
:105D400022000199029801F0A5F8009BA1045A01D4
:105D5000104B890C9B18029A2D195A619A69361BAF
:105D6000920B92030A439A61009B039A08335B01EA
:105D7000D3180222DA715979823A0A435A71019B87
:105D80001B1901939AE7C046B00A002021060020A3
:105D90002C060020B80A00200000002040420F001E
:105DA000701101002306002070B50D001C000D4B82
:105DB000AE01F61811003000220001F06BF8EDB2D0
:105DC00009496D014D196E61AB69084A2000134005
:105DD000AB61AB69A2049B0B920C9B031343AB61B9
:105DE00070BDC0462C060020B80A0020FF3F00F01E
:105DF000F7B5104B01901B780F001500002B0CD14C
:105E00000D4B16001C78002C09D00C4E0C48348821
:105E10002018641901F03EF834802800FEBD002EE1
:105E2000FBD03A19330000210198FFF7BDFF241879
:105E3000361AF4E7AC090020AD0A0020AE0A0020B3
:105E4000AD090020F8B50F0016000024012A26D95C
:105E5000100001F00BF80500380001F0E7F803230B
:105E600002220130400028706B7096420DD93978BB
:105E700000290AD0531CDBB20137A9549E4203D03B
:105E80000232EC54D2B2F0E7320029000548FFF7A5
:105E9000AFFF441EA041C4B2280000F0F1FF200073
:105EA000F8BDC04600060020F0B50024012685B0EC
:105EB000184B0F0069461E7005000094FFF7E3FCC5
:105EC000154B01A90B806A3BFF3BCB715A330B7218
:105ED000009B8C7109334B800E4B4E7108711C7006
:105EE0003A00092F0FD00D4F09223E700C4E2800AA
:105EF00000943480FFF77CFF69462800FFF7C3FC5D
:105F0000328808493C702800FFF772FF012005B075
:105F1000F0BDC046AC09002009020000AD0A002017
:105F2000AE0A0020AD09002070B5CE7892B0050011
:105F30000C00022E0BD18B79C9792C480902194328
:105F4000FFF7B2FF411E8841C0B212B070BD00F031
:105F5000DBFB210000F07AFB002803D0C117081AF0
:105F6000C00FF2E7012E0ED1E279A37912021A4393
:105F70001F49112A13D8D2B2002A10D02800FFF7E7
:105F800037FF0120E1E7032EDFD1A378002B08D1F2
:105F9000E279A37912021A431649032AEBD90A7847
:105FA000ECE7022B08D1E279A379120212491A43D5
:105FB0002800FFF747FFC8E7012B05D1E279A37955
:105FC00012021A430D49F3E7032BBED1412201000F
:105FD00001A800F068FF00F097FB01A900F046FB64
:105FE000E279A37912021A4301A9E1E70006002031
:105FF00008770000FC760000F076000000770000D3
:10600000CBB204495B01C9188B699B0B9B038B6165
:106010007047C046B80A002037B5050048780C0024
:106020000B2810D800F07EFD061B0F2B0F4045619A
:10603000494C5A5D097801AA002906D10223118032
:106040002800FFF7B1FE01203EBD00231380284B3E
:106050001B78012B00D1137002230021F0E78A780E
:106060000023012A03D101AA1380224BF0E7204A22
:106070001370214A93699B0B9B039361E3E78C7830
:10608000012C06D100211B4B01AA1C7011702300AA
:10609000D6E70120002CD7D1154B174A1870936909
:1060A0009B0B9B039361CFE789782800FFF716FCD1
:1060B000C9E72800FFF738FFC6E701230F4ACCE7FE
:1060C0000B780020DB06BFD12800FFF7C3FCA278C5
:1060D0000A4B0B481A6000F003FDCAE70123094A86
:1060E000BBE78A78074B1A60C3E70020ACE7C046DD
:1060F000220600202A060020B80A0020B00A00204C
:10610000CC0B0020B40A00204A4BF7B51E780500DE
:10611000002E00D07EE0484C23689A8B12070DD5E4
:10612000082231009A833000FFF77EFA102223689C
:10613000FF33997A0A439A72404B1E6023689A8B08
:1061400052071FD504229A833D4A1378002B0AD0A8
:106150001378013BDBB213701378002B03D10121BC
:106160001F20FFF767F9374A1378002B0AD01378FE
:10617000013BDBB213701378002B03D101211E20E9
:10618000FFF758F92368FF331A7A920603D52022C5
:10619000597A0A435A721A7AD20623D569460800F8
:1061A000294AC0CAC0C0A268920B9203A2604022D2
:1061B000587902435A7160230A7828001A422AD17A
:1061C000FFF72AFF2368FF33002827D08022997920
:1061D00052420A439A711A7A520603D54022597ADA
:1061E0000A435A727F2601252368FF331E722F004F
:1061F000236808377F01DB19DB79002B07D0134BAD
:10620000AA00D05800280DD003681B6898470135B4
:10621000082DECD1F7BDFFF785FBD3E720210C4A11
:106220009171D8E729000B4800F02BFC2368DF1997
:10623000FE71ECE7AD0A0020B80A0020B00A002089
:106240002106002020060020EC0700200406002084
:10625000FF500041CC0B002010B50248FFF754FF5F
:1062600010BDC0460006002080235B000380002391
:10627000436007330372704783000148C0187047BA
:10628000D8050020836C402B09D03F22036CC154F9
:10629000036C013313400364836C013383647047E0
:1062A000F7B505006846FFF721FA00264022019B5A
:1062B000013B02D32E6D961BFAE768460193FEF769
:1062C000AFFBAB6D6846002B4FD1FFF70FFA2900EB
:1062D000019BA831013B5A1C0CD00C785A1EE4B229
:1062E000002C05D168460193FEF79AFB2000FEBD05
:1062F0001300F0E7684601930024FEF791FB2A00A3
:106300002900A0321368A431B4420ED00868984224
:106310000BD92800591CEB1811606033197808302C
:10632000C9B2FFF7AFFF0134E9E709689942DDD14F
:10633000002313600133AB656846FFF7D7F92F00E0
:106340002A000021019BA837013BF532581CC9D017
:10635000397010785E1E002805D011702800019356
:10636000FFF704FAEBE73300F0E7FFF7BFF9290086
:10637000019BF431013B5A1C06D00C785A1EE4B242
:10638000002CAFD01300F6E7684601930024FEF717
:1063900047FB2A002900EC321368F031B44202D0E6
:1063A000086898421DD8096899429FD10023684621
:1063B0001360AB65FFF79AF92F002A000021019BBB
:1063C000F437013BF532581C00D18BE73970107857
:1063D0005E1E002811D0117028000193FFF7C6F946
:1063E000EAE72800591CEB181160AC331978083023
:1063F000C9B2FFF747FF0134CBE73300E3E710B53D
:106400000400FFF74DFF206D10BD10B50400FFF72D
:1064100047FF236D002B03D0E36CE418207A10BDF6
:1064200001204042FBE7F7B517000E000400FFF71C
:1064300037FF6846FFF75AF93F2200259446019B33
:10644000013B5A1C19D0BD4215D2226D002A12D030
:106450000121226D4942002A0AD06046E26CA2184E
:10646000117AE26C01320240E264226D013A226547
:1064700071550135E7E7013BE3E768460193FEF715
:10648000CFFA2800FEBD0000014B024A1A60704797
:10649000B80A002000500041F7B50024514B0121FB
:1064A00005001F201C70FEF779FF01211F20FEF759
:1064B000C1FF4D4B01211E201C70FEF76FFF012113
:1064C0001E20FEF7B7FF2023484A0F20D1690B4357
:1064D000D361012246490B7813430B70454B197861
:1064E0008143197006211C782143197042490C78A8
:1064F00022430A701A7802401A70602219780A43FF
:106500001A703E4B3E4A5A805F78FF09FCD13D48E5
:10651000FEF766FD01233C4C3C4E226830001178AA
:106520000B43137080223900520000F0BCFC22683B
:106530009378DB07FCD456621F26354B1B68590B3A
:10654000980C9B01314030405B0FB14200D10521D6
:106550001F2800D10238072B00D1043B31408901AC
:10656000178D01912B4930400F4001993943118516
:10657000118D0700B143080038431085118D1803B1
:10658000254B7F260B4003430C2013850823D1782D
:1065900081430B430321D3702268D3788B430139A5
:1065A0000B43D3702268137833401370042322689E
:1065B0001678334313702268C1241389A4008343DF
:1065C0001648138103591B021B0A035180230360E1
:1065D000137813481943012311702B70002100F028
:1065E000EBF8F7BD21060020200600200004004043
:1065F000584400413C44004159440041000C0040D3
:106600000640000059620000B80A0020BC0A0020C1
:10661000246080003FF8FFFFFF8FFFFF00E100E0F4
:10662000CC0B002070B50E0000254468002C0BD068
:10663000236831005B6820009847002802DB2D1892
:10664000E468F3E701256D42280070BD70B50D00C8
:106650004468002C08D0236829009B6820009847D4
:10666000002802D1E468F4E7200070BD70B50D0089
:106670004468002C07D0236829002000DB68984775
:10668000E4682D18F5E72C7070BD70B50D004468F6
:10669000002C08D0236829001B6820009847002898
:1066A00002D1E468F4E7200070BDF8B542788B7938
:1066B0000D00017A9B18040000208B4222DC6368E5
:1066C000834219D16560002623786A71EA792B71BB
:1066D0009B182370AB79B34213D9AB68B7006078CD
:1066E000DF19FFF7C9FD3B68013603606378F6B236
:1066F00001336370EEE70B00D9680029FBD1DD6040
:10670000E1E70120F8BD000070B50126054D064CFB
:106710002B68334203D12000FFF7A6FD2E60200036
:1067200070BDC046BC0B0020C00B002010B500F0AF
:106730009DFB10BD10B500F0A3FB10BD00207047FD
:1067400070B50F26CB1D013902003240D5B22C00A6
:1067500000093034092A00DD07341C70013B8B42EC
:10676000F2D170BD10B50C000B4B1868FFF7E8FFB5
:1067700021000A4B08311868FFF7E2FF2100084B9F
:1067800010311868FFF7DCFF2100064B183118683C
:10679000FFF7D6FF202010BD0CA0800040A0800095
:1067A00044A0800048A0800008B4024B9C461038EA
:1067B00008BC604765670000704770473F2070471E
:1067C00013B56B460268D97107335468190001226A
:1067D000A04716BD70B50A260B7892B06E440233FE
:1067E00005000B703C220021300000F05CFB3948B2
:1067F00001AC06903848242107900620207768468F
:10680000364AA1742281364A364BA281FD3AFF3ABC
:106810008018C177684623390630C177684607304B
:10682000C17702A8C1770720F277032608316944AF
:10683000C87703A9CE7710212B366E443170092614
:1068400021851F3169440E700CA9053E0E7033215D
:106850002380022369440B7006360DA90E7022496D
:106860003536A1863B216E44307010A86274E27701
:1068700002703D3269446A440B701370402100225B
:10688000E37023716371A37341336B4421871970E3
:106890005A702B7DC039A370A37263770133DBB2CA
:1068A000A3776A7D0B200D0068441543C57731201E
:1068B000684403703A23501C6B4418704123023221
:1068C0000A436B441A70210042220848FFF790FAED
:1068D00012B070BD10010424020605240904000052
:1068E00001020000080B0000070500000006002060
:1068F00008B4024B9C46103808BC6047D5670000BE
:10690000F8B5027D0B7904000D0000279A420CD1E6
:106910000B784E78A12B0AD1212E06D10100072237
:1069200034311C48FFF764FA01373800F8BD212BD9
:10693000FBD1202E23D10100072234311548FFF767
:106940008DF99623626BDB009A421FD13B3423788A
:10695000DB071BD4FA20FEF711FE00210D48FFF7DC
:106960004FFB0127232EE0D1EB78AA781B021343BB
:10697000094A002107481360FFF742FBD5E7222EA2
:10698000EFD103008A783B331A70DAE7FEF700FE96
:10699000E3E7C046000600200800002008B4024BD0
:1069A0009C46103808BC60470169000010B53430BF
:1069B0000822002100F077FA10BD000010B5417DDB
:1069C000006A0131FFF774F8034B1B6801335A1E4C
:1069D0009341181810BDC0460C00002010B5417D31
:1069E000006A0231FFF77AF810BD10B5417D006AE8
:1069F0000231FFF741F810BD70B50D00417D040074
:106A0000130002312A00006AFFF73CF9002801D187
:106A10000123636070BD000010B5054C23685A1C4B
:106A200004D103685B69984703002060180010BD1B
:106A30000C000020074A0300106810B5411C03D069
:106A400001235B42136010BD597D186A0131FFF7C5
:106A5000C9F8F8E70C00002070B50500FEF7C6FA8B
:106A6000F423FF330024984207D93B352C780A20C1
:106A7000631E9C41E4B2FEF7EFFA200070BD0020D7
:106A800070477047FA239B0010B58360114B0022BA
:106A9000C3820300283383610F4B04004260C2614C
:106AA0001800503323610830631D21622060DA77BB
:106AB0000A4A2F3303CA03C38323A362813BE362E1
:106AC00080332363FFF720FE21001031FFF7EDFD37
:106AD000200010BD03020000247700001C77000096
:106AE000022110B5094B1A68437D5B01D318FF33AF
:106AF0009C7A21439972437D0133DBB25B01D31849
:106B00000122FF33997A0A439A7210BDB80A002015
:106B100010B502490248FFF7B5FF10BD000600207E
:106B2000CC0B002002B4714649084900095C4900B9
:106B30008E4402BC7047C046002243088B4274D387
:106B400003098B425FD3030A8B4244D3030B8B426E
:106B500028D3030C8B420DD3FF22090212BA030C77
:106B60008B4202D31212090265D0030B8B4219D358
:106B700000E0090AC30B8B4201D3CB03C01A524178
:106B8000830B8B4201D38B03C01A5241430B8B42C0
:106B900001D34B03C01A5241030B8B4201D30B03A9
:106BA000C01A5241C30A8B4201D3CB02C01A5241D0
:106BB000830A8B4201D38B02C01A5241430A8B4293
:106BC00001D34B02C01A5241030A8B4201D30B027C
:106BD000C01A5241CDD2C3098B4201D3CB01C01A96
:106BE000524183098B4201D38B01C01A52414309A0
:106BF0008B4201D34B01C01A524103098B4201D38E
:106C00000B01C01A5241C3088B4201D3CB00C01AFA
:106C1000524183088B4201D38B00C01A5241430872
:106C20008B4201D34B00C01A5241411A00D2014697
:106C3000524110467047FFE701B5002000F0F0F820
:106C400002BDC0460029F7D076E7704703460B43E4
:106C50007FD4002243088B4274D303098B425FD355
:106C6000030A8B4244D3030B8B4228D3030C8B4281
:106C70000DD3FF22090212BA030C8B4202D3121267
:106C8000090265D0030B8B4219D300E0090AC30B3C
:106C90008B4201D3CB03C01A5241830B8B4201D3E9
:106CA0008B03C01A5241430B8B4201D34B03C01AD2
:106CB0005241030B8B4201D30B03C01A5241C30A4A
:106CC0008B4201D3CB02C01A5241830A8B4201D3BB
:106CD0008B02C01A5241430A8B4201D34B02C01AA5
:106CE0005241030A8B4201D30B02C01A5241CDD24A
:106CF000C3098B4201D3CB01C01A524183098B4295
:106D000001D38B01C01A524143098B4201D34B017D
:106D1000C01A524103098B4201D30B01C01A5241E0
:106D2000C3088B4201D3CB00C01A524183088B4267
:106D300001D38B00C01A524143088B4201D34B0050
:106D4000C01A5241411A00D20146524110467047C2
:106D50005DE0CA0F00D04942031000D340425340C7
:106D600000229C4603098B422DD3030A8B4212D387
:106D7000FC22890112BA030A8B420CD389019211B9
:106D80008B4208D3890192118B4204D389013AD0F6
:106D9000921100E08909C3098B4201D3CB01C01ACB
:106DA000524183098B4201D38B01C01A52414309DE
:106DB0008B4201D34B01C01A524103098B4201D3CC
:106DC0000B01C01A5241C3088B4201D3CB00C01A39
:106DD000524183088B4201D38B00C01A5241D9D251
:106DE00043088B4201D34B00C01A5241411A00D2D2
:106DF0000146634652415B10104601D34042002BCE
:106E000000D54942704763465B1000D3404201B54C
:106E1000002000F005F802BD0029F8D016E7704701
:106E20007047C04670B500260C4D0D4C641BA41075
:106E3000A64209D1002600F011F90A4D0A4C641B44
:106E4000A410A64205D170BDB300EB589847013697
:106E5000EEE7B300EB5898470136F2E774000020E4
:106E600074000020740000208800002010B5034B3F
:106E70000100186800F06AF810BDC046100000203C
:106E800010B5034B0100186800F016F810BDC0469D
:106E900010000020002310B59A4200D110BDCC5C38
:106EA000C4540133F8E703001218934200D170472D
:106EB00019700133F9E7000070B50500002910D002
:106EC0000C1F2368002B00DAE418280000F0B5F846
:106ED0001D4A1368002B05D163601460280000F080
:106EE000ADF870BDA34209D9216860188342F3D17F
:106EF00018685B6841182160EEE713005A68002AA1
:106F000001D0A242F9D919685818A0420BD12068C3
:106F10000918581819608242E0D110685268411867
:106F200019605A60DAE7A04202D90C232B60D5E73A
:106F300021686018824203D11068526841182160AC
:106F400062605C60CAE7C046080C0020032370B58D
:106F5000CD1C9D43083506000C2D1ED20C25A942E0
:106F60001DD8300000F069F8254A14682100002976
:106F700019D1244C2368002B03D1300000F044F8D1
:106F800020602900300000F03FF8431C2BD10C2377
:106F90003000336000F052F803E0002DDFDA0C23FC
:106FA0003360002070BD0B685B1B19D40B2B03D919
:106FB0000B60CC18256003E04B688C420DD1136048
:106FC000300000F03BF8200007220B30231D9043D7
:106FD000C31AE7D05A42E250E4E763600C00EFE7DF
:106FE0000C004968C3E70323C41C9C43A042E1D0C2
:106FF000211A300000F008F8431CDBD1C7E7C04677
:10700000080C00200C0C0020002370B5064C050075
:107010000800236000F014F8431C03D12368002B00
:1070200000D02B6070BDC046140C00200023C25C51
:107030000133002AFBD1581E70477047704700008B
:10704000044A1368002B00D1034B18181060180075
:107050007047C046100C0020180C0020F8B5C04640
:10706000F8BC08BC9E467047F8B5C046F8BC08BCE2
:107070009E4670473D3D3D3D3D3D3D3D3D3D3D3D99
:107080003D3D3D3D3D3D3D3D3D3D3D3D3D3D3D3D30
:107090003D3D3D3D3D3D3D3D3D3D3D3D3D3D3D3D20
:1070A0003D3D3D3D3D3D00202055504C4F4144204D
:1070B00056414C49444154494F4E20534B4554434B
:1070C00048002020426F6172643A202000556E6BA8
:1070D0006E6F776E20626F617264202863686563EB
:1070E0006B204651424E290020204275696C743A4B
:1070F0002020004A756C2031382032303236003082
:10710000383A30303A31390020204966202742751C
:10711000696C7427206D61746368657320796F757D
:107120007220636F6D70696C652074696D652C20C9
:1071300074686500202075706C6F616420726570E2
:107140006C6163656420746865206F6C6420666997
:10715000726D776172653A2050415353005B7365DD
:1071600072766F5D20537765657020757020286694
:107170006F72206C6F6F702900616E676C653A00EA
:107180005B736572766F5D20537765657020646F01
:10719000776E20287768696C65206C6F6F702900A6
:1071A0005B736572766F5D2043656E7472652070E7
:1071B000756C7365732028646F2D7768696C652022
:1071C0006C6F6F7029005B686561727462656174D1
:1071D0005D207061737320002C20757074696D657B
:1071E000200073202D207374696C6C2072756E6E94
:1071F000696E673A2050415353005B736572766F36
:107200005D204174746163686564206F6E207069ED
:107210006E203900000000000B000000020000009A
:1072200004000000FF00FFFFFFFF0B000000000054
:107230000A0000000200000004000000FF00FFFF41
:10724000FFFF0A000000000008000000040000002A
:107250001C000000FF0000000000FF000000000014
:1072600009000000040000001C000000FF000100F5
:1072700001000900000000000E00000004000000F2
:107280001C000000FF00000300030E0000000000CF
:107290000F000000040000001C000000FF000103BC
:1072A00001030F00000000001400000005000000B2
:1072B0002C000000FF00020002000400000000009B
:1072C00015000000050000002C000000FF00030076
:1072D000030005000000000006000000040000009C
:1072E0001C000000FF00000100010600000000007B
:1072F00007000000040000001C000000FF00010166
:10730000010107000000000012000000040000005E
:107310001C000000FF00000300030200000000004A
:1073200010000000040000001C000000FF0000022C
:107330000002000000000000130000000400000034
:107340001C000000FF000103010303000000000017
:1073500011000000040000001C000000FF000102FA
:1073600001020100FF00000000000000FF0000001B
:1073700000000000FF00FFFFFFFFFF000000000013
:10738000030000000100000002000000FF00FFFFFA
:10739000FFFFFF00000000001600000002000000D8
:1073A00004000000FF00FFFFFFFF060000000000D8
:1073B000170000000200000004000000FF00FFFFB3
:1073C000FFFF0700000000000C00000003000000A9
:1073D00004000000FF00FFFFFFFF0C00FF000000A3
:1073E00000000000FF00000000000000FF00FFFFA1
:1073F000FFFFFF00010000000B0000000300000081
:1074000004000000FF00FFFFFFFF0B000100000071
:107410000A0000000300000004000000FF00FFFF5E
:10742000FFFF0A00FF00000000000000FF00000056
:1074300000000000FF00FFFFFFFFFF00FF00000053
:1074400000000000FF00000000000000FF00FFFF40
:10745000FFFFFF000000000002000000010000002C
:10746000020000000000FFFFFFFF0200010000001B
:107470000800000001000000020000000200FFFF01
:10748000FFFF0800010000000900000001000000EB
:10749000020000000300FFFFFFFF090000000000E2
:1074A0000400000001000000020000000400FFFFD3
:1074B000FFFF0400000000000500000001000000C4
:1074C000020000000500FFFFFFFF050001000000B3
:1074D0000200000001000000020000000A00FFFF9F
:1074E000FFFF020001000000030000000B0000008D
:1074F00004000000FF00FFFFFFFFFF00000000008E
:107500001B0000000B00000004000000FF00FFFF54
:10751000FFFFFF00000000001C000000060000004C
:1075200000000000FF00FFFFFFFFFF000000000061
:10753000180000000600000000000000FF00FFFF30
:10754000FFFFFF000000000019000000060000001F
:1075500000000000FF00FFFFFFFFFF000100000030
:10756000160000000300000000000000FF00FFFF05
:10757000FFFFFF00010000001700000003000000F3
:1075800000000000FF00FFFFFFFFFF000000000001
:10759000160000000200000000000000FF00FFFFD6
:1075A000FFFFFF00000000001700000002000000C5
:1075B00000000000FF00FFFFFFFFFF0000000000D1
:1075C000130000000200000000000000FF00FFFFA9
:1075D000FFFFFF000000000010000000020000009C
:1075E00000000000FF00FFFFFFFFFF0000000000A1
:1075F000120000000200000000000000FF00FFFF7A
:10760000FFFFFF000000000011000000020000006A
:1076100000000000FF00FFFFFFFFFF000000000070
:107620000D000000040000000C000000FF0001003D
:10763000FFFF0D0000000000150000000500000025
:107640000C000000FF000300FFFFFF00000000002F
:1076500006000000040000000C000000FF00000114
:10766000FFFFFF0000000000070000000400000012
:107670000C000000FF000101FFFFFF000000000000
:107680000200000001000000020000001400FFFFE3
:10769000FFFF02000000000000000000454D000058
:1076A0002B4E0000BF4900000B4A0000B949000002
:1076B000E14D0000CF490000A9490000794A0000CF
:1076C000E7490000A54900000D0A00000000000085
:1076D00000000000A557000027640000FF630000C1
:1076E0000B640000195600001B560000FB560000FA
:1076F00041726475696E6F204D3000000403090407
:10770000556E6B6E6F776E0012010002EF02014042
:10771000032A4E80000101020301000000C20100A3
:10772000000008000000000000000000C167000029
:10773000F9690000BD670000DD690000BD69000057
:10774000356A0000196A0000B9670000BB670000D5
:10775000AD690000596A0000EB690000D5670000C0
:107760003D6700000169000065670000F0FFFFFF52
:10777000000000009D690000F16800007F6A0000C1
:08778000A967000000000000F1
:1077880040420F00FFFFFFFFFFFFFFFFFFFFFFFF6C
:1077980014000020000000000000000000000000AD
:1077A80000000000000000000000000000000000D1
:1077B80000000000000000000000000000000000C1
:1077C80000000000000000000000000000000000B1
:1077D80000000000000000000000000000000000A1
:1077E8000000000000000000000000000000000091
:1077F80000000000DD400000E5420000DD4600001A
:0C78080089640000116B0000B540000016
:0400000300004F7D2D
:00000001FF
